{
  "_format": "hh-sol-artifact-1",
  "contractName": "MultiSig",
  "sourceName": "contracts/MultiSig.sol",
  "abi": [
    {
      "inputs": [
        {
          "internalType": "address[]",
          "name": "_validSigners",
          "type": "address[]"
        },
        {
          "internalType": "uint256",
          "name": "_quorum",
          "type": "uint256"
        }
      ],
      "stateMutability": "payable",
      "type": "constructor"
    },
    {
      "stateMutability": "payable",
      "type": "fallback"
    },
    {
      "inputs": [
        {
          "internalType": "address",
          "name": "_newSigner",
          "type": "address"
        }
      ],
      "name": "addValidSigner",
      "outputs": [],
      "stateMutability": "nonpayable",
      "type": "function"
    },
    {
      "inputs": [
        {
          "internalType": "uint256",
          "name": "_txId",
          "type": "uint256"
        }
      ],
      "name": "approveTransaction",
      "outputs": [],
      "stateMutability": "nonpayable",
      "type": "function"
    },
    {
      "inputs": [],
      "name": "claimOwnership",
      "outputs": [],
      "stateMutability": "nonpayable",
      "type": "function"
    },
    {
      "inputs": [],
      "name": "getAllTransactions",
      "outputs": [
        {
          "components": [
            {
              "internalType": "uint256",
              "name": "id",
              "type": "uint256"
            },
            {
              "internalType": "uint256",
              "name": "amount",
              "type": "uint256"
            },
            {
              "internalType": "address",
              "name": "receiver",
              "type": "address"
            },
            {
              "internalType": "uint256",
              "name": "signersCount",
              "type": "uint256"
            },
            {
              "internalType": "bool",
              "name": "isExecuted",
              "type": "bool"
            },
            {
              "internalType": "address",
              "name": "txCreator",
              "type": "address"
            }
          ],
          "internalType": "struct MultiSig.Transaction[]",
          "name": "",
          "type": "tuple[]"
        }
      ],
      "stateMutability": "view",
      "type": "function"
    },
    {
      "inputs": [
        {
          "internalType": "uint256",
          "name": "_amount",
          "type": "uint256"
        },
        {
          "internalType": "address",
          "name": "_receiver",
          "type": "address"
        }
      ],
      "name": "initiateTransaction",
      "outputs": [],
      "stateMutability": "nonpayable",
      "type": "function"
    },
    {
      "inputs": [
        {
          "internalType": "uint256",
          "name": "_index",
          "type": "uint256"
        }
      ],
      "name": "removeSigner",
      "outputs": [],
      "stateMutability": "nonpayable",
      "type": "function"
    },
    {
      "inputs": [
        {
          "internalType": "uint256",
          "name": "",
          "type": "uint256"
        }
      ],
      "name": "signers",
      "outputs": [
        {
          "internalType": "address",
          "name": "",
          "type": "address"
        }
      ],
      "stateMutability": "view",
      "type": "function"
    },
    {
      "inputs": [
        {
          "internalType": "address",
          "name": "_newOwner",
          "type": "address"
        }
      ],
      "name": "transferOwnership",
      "outputs": [],
      "stateMutability": "nonpayable",
      "type": "function"
    },
    {
      "stateMutability": "payable",
      "type": "receive"
    }
  ],
  "bytecode": "0x6080604052604051611ed2380380611ed283398181016040528101906100259190610457565b33600360006101000a81548173ffffffffffffffffffffffffffffffffffffffff021916908373ffffffffffffffffffffffffffffffffffffffff160217905550816000908051906020019061007c9291906101af565b508060018190555060005b82518160ff1610156101a757600073ffffffffffffffffffffffffffffffffffffffff16838260ff16815181106100c1576100c06104b3565b5b602002602001015173ffffffffffffffffffffffffffffffffffffffff160361011f576040517f08c379a00000000000000000000000000000000000000000000000000000000081526004016101169061053f565b60405180910390fd5b600160086000858460ff168151811061013b5761013a6104b3565b5b602002602001015173ffffffffffffffffffffffffffffffffffffffff1673ffffffffffffffffffffffffffffffffffffffff16815260200190815260200160002060006101000a81548160ff021916908315150217905550808061019f9061059b565b915050610087565b5050506105c4565b828054828255906000526020600020908101928215610228579160200282015b828111156102275782518260006101000a81548173ffffffffffffffffffffffffffffffffffffffff021916908373ffffffffffffffffffffffffffffffffffffffff160217905550916020019190600101906101cf565b5b5090506102359190610239565b5090565b5b8082111561025257600081600090555060010161023a565b5090565b6000604051905090565b600080fd5b600080fd5b600080fd5b6000601f19601f8301169050919050565b7f4e487b7100000000000000000000000000000000000000000000000000000000600052604160045260246000fd5b6102b88261026f565b810181811067ffffffffffffffff821117156102d7576102d6610280565b5b80604052505050565b60006102ea610256565b90506102f682826102af565b919050565b600067ffffffffffffffff82111561031657610315610280565b5b602082029050602081019050919050565b600080fd5b600073ffffffffffffffffffffffffffffffffffffffff82169050919050565b60006103578261032c565b9050919050565b6103678161034c565b811461037257600080fd5b50565b6000815190506103848161035e565b92915050565b600061039d610398846102fb565b6102e0565b905080838252602082019050602084028301858111156103c0576103bf610327565b5b835b818110156103e957806103d58882610375565b8452602084019350506020810190506103c2565b5050509392505050565b600082601f8301126104085761040761026a565b5b815161041884826020860161038a565b91505092915050565b6000819050919050565b61043481610421565b811461043f57600080fd5b50565b6000815190506104518161042b565b92915050565b6000806040838503121561046e5761046d610260565b5b600083015167ffffffffffffffff81111561048c5761048b610265565b5b610498858286016103f3565b92505060206104a985828601610442565b9150509250929050565b7f4e487b7100000000000000000000000000000000000000000000000000000000600052603260045260246000fd5b600082825260208201905092915050565b7f676574206f757400000000000000000000000000000000000000000000000000600082015250565b60006105296007836104e2565b9150610534826104f3565b602082019050919050565b600060208201905081810360008301526105588161051c565b9050919050565b7f4e487b7100000000000000000000000000000000000000000000000000000000600052601160045260246000fd5b600060ff82169050919050565b60006105a68261058e565b915060ff82036105b9576105b861055f565b5b600182019050919050565b6118ff806105d36000396000f3fe60806040526004361061007f5760003560e01c80635ffde1441161004e5780635ffde1441461012a578063de8ee81714610153578063e42bb8aa1461017c578063f2fde38b146101a557610080565b80632079fb9a14610082578063242232d1146100bf57806327506f53146100e85780634e71e0c81461011357610080565b5b005b34801561008e57600080fd5b506100a960048036038101906100a4919061100c565b6101ce565b6040516100b6919061107a565b60405180910390f35b3480156100cb57600080fd5b506100e660048036038101906100e1919061100c565b61020d565b005b3480156100f457600080fd5b506100fd61057f565b60405161010a91906111f8565b60405180910390f35b34801561011f57600080fd5b506101286106c3565b005b34801561013657600080fd5b50610151600480360381019061014c919061100c565b6107d8565b005b34801561015f57600080fd5b5061017a60048036038101906101759190611246565b6109b2565b005b34801561018857600080fd5b506101a3600480360381019061019e9190611273565b610b05565b005b3480156101b157600080fd5b506101cc60048036038101906101c79190611246565b610e65565b005b600081815481106101de57600080fd5b906000526020600020016000915054906101000a900473ffffffffffffffffffffffffffffffffffffffff1681565b600254811115610252576040517f08c379a000000000000000000000000000000000000000000000000000000000815260040161024990611310565b60405180910390fd5b600073ffffffffffffffffffffffffffffffffffffffff163373ffffffffffffffffffffffffffffffffffffffff16036102c1576040517f08c379a00000000000000000000000000000000000000000000000000000000081526004016102b89061137c565b60405180910390fd5b6102c9610eb1565b6006600082815260200190815260200160002060003373ffffffffffffffffffffffffffffffffffffffff1673ffffffffffffffffffffffffffffffffffffffff16815260200190815260200160002060009054906101000a900460ff1615610367576040517f08c379a000000000000000000000000000000000000000000000000000000000815260040161035e906113e8565b60405180910390fd5b600060076000838152602001908152602001600020905080600101544710156103c5576040517f08c379a00000000000000000000000000000000000000000000000000000000081526004016103bc90611454565b60405180910390fd5b8060040160009054906101000a900460ff1615610417576040517f08c379a000000000000000000000000000000000000000000000000000000000815260040161040e906114c0565b60405180910390fd5b60015481600301541061045f576040517f08c379a00000000000000000000000000000000000000000000000000000000081526004016104569061152c565b60405180910390fd5b60018160030154610470919061157b565b816003018190555060016006600084815260200190815260200160002060003373ffffffffffffffffffffffffffffffffffffffff1673ffffffffffffffffffffffffffffffffffffffff16815260200190815260200160002060006101000a81548160ff02191690831515021790555060015481600301540361057b5760018160040160006101000a81548160ff0219169083151502179055508060020160009054906101000a900473ffffffffffffffffffffffffffffffffffffffff1673ffffffffffffffffffffffffffffffffffffffff166108fc82600101549081150290604051600060405180830381858888f19350505050158015610579573d6000803e3d6000fd5b505b5050565b60606005805480602002602001604051908101604052809291908181526020016000905b828210156106ba57838290600052602060002090600502016040518060c001604052908160008201548152602001600182015481526020016002820160009054906101000a900473ffffffffffffffffffffffffffffffffffffffff1673ffffffffffffffffffffffffffffffffffffffff1673ffffffffffffffffffffffffffffffffffffffff168152602001600382015481526020016004820160009054906101000a900460ff161515151581526020016004820160019054906101000a900473ffffffffffffffffffffffffffffffffffffffff1673ffffffffffffffffffffffffffffffffffffffff1673ffffffffffffffffffffffffffffffffffffffff1681525050815260200190600101906105a3565b50505050905090565b600460009054906101000a900473ffffffffffffffffffffffffffffffffffffffff1673ffffffffffffffffffffffffffffffffffffffff163373ffffffffffffffffffffffffffffffffffffffff1614610753576040517f08c379a000000000000000000000000000000000000000000000000000000000815260040161074a906115fb565b60405180910390fd5b33600360006101000a81548173ffffffffffffffffffffffffffffffffffffffff021916908373ffffffffffffffffffffffffffffffffffffffff1602179055506000600460006101000a81548173ffffffffffffffffffffffffffffffffffffffff021916908373ffffffffffffffffffffffffffffffffffffffff160217905550565b6107e0610f3f565b6000805490508110610827576040517f08c379a000000000000000000000000000000000000000000000000000000000815260040161081e90611667565b60405180910390fd5b6000600160008054905061083b9190611687565b8154811061084c5761084b6116bb565b5b9060005260206000200160009054906101000a900473ffffffffffffffffffffffffffffffffffffffff166000828154811061088b5761088a6116bb565b5b9060005260206000200160006101000a81548173ffffffffffffffffffffffffffffffffffffffff021916908373ffffffffffffffffffffffffffffffffffffffff1602179055506000600860008084815481106108ec576108eb6116bb565b5b9060005260206000200160009054906101000a900473ffffffffffffffffffffffffffffffffffffffff1673ffffffffffffffffffffffffffffffffffffffff1673ffffffffffffffffffffffffffffffffffffffff16815260200190815260200160002060006101000a81548160ff021916908315150217905550600080548061097a576109796116ea565b5b6001900381819060005260206000200160006101000a81549073ffffffffffffffffffffffffffffffffffffffff0219169055905550565b6109ba610f3f565b600860008273ffffffffffffffffffffffffffffffffffffffff1673ffffffffffffffffffffffffffffffffffffffff16815260200190815260200160002060009054906101000a900460ff1615610a47576040517f08c379a0000000000000000000000000000000000000000000000000000000008152600401610a3e90611765565b60405180910390fd5b6001600860008373ffffffffffffffffffffffffffffffffffffffff1673ffffffffffffffffffffffffffffffffffffffff16815260200190815260200160002060006101000a81548160ff0219169083151502179055506000819080600181540180825580915050600190039060005260206000200160009091909190916101000a81548173ffffffffffffffffffffffffffffffffffffffff021916908373ffffffffffffffffffffffffffffffffffffffff16021790555050565b600073ffffffffffffffffffffffffffffffffffffffff163373ffffffffffffffffffffffffffffffffffffffff1603610b74576040517f08c379a0000000000000000000000000000000000000000000000000000000008152600401610b6b9061137c565b60405180910390fd5b60008211610bb7576040517f08c379a0000000000000000000000000000000000000000000000000000000008152600401610bae906117d1565b60405180910390fd5b610bbf610eb1565b60006001600254610bd0919061157b565b90506000600760008381526020019081526020016000209050818160000181905550838160010181905550828160020160006101000a81548173ffffffffffffffffffffffffffffffffffffffff021916908373ffffffffffffffffffffffffffffffffffffffff16021790555060018160030154610c4f919061157b565b8160030181905550338160040160016101000a81548173ffffffffffffffffffffffffffffffffffffffff021916908373ffffffffffffffffffffffffffffffffffffffff160217905550600581908060018154018082558091505060019003906000526020600020906005020160009091909190915060008201548160000155600182015481600101556002820160009054906101000a900473ffffffffffffffffffffffffffffffffffffffff168160020160006101000a81548173ffffffffffffffffffffffffffffffffffffffff021916908373ffffffffffffffffffffffffffffffffffffffff160217905550600382015481600301556004820160009054906101000a900460ff168160040160006101000a81548160ff0219169083151502179055506004820160019054906101000a900473ffffffffffffffffffffffffffffffffffffffff168160040160016101000a81548173ffffffffffffffffffffffffffffffffffffffff021916908373ffffffffffffffffffffffffffffffffffffffff160217905550505060016006600084815260200190815260200160002060003373ffffffffffffffffffffffffffffffffffffffff1673ffffffffffffffffffffffffffffffffffffffff16815260200190815260200160002060006101000a81548160ff0219169083151502179055506001600254610e59919061157b565b60028190555050505050565b610e6d610f3f565b80600460006101000a81548173ffffffffffffffffffffffffffffffffffffffff021916908373ffffffffffffffffffffffffffffffffffffffff16021790555050565b600860003373ffffffffffffffffffffffffffffffffffffffff1673ffffffffffffffffffffffffffffffffffffffff16815260200190815260200160002060009054906101000a900460ff16610f3d576040517f08c379a0000000000000000000000000000000000000000000000000000000008152600401610f349061183d565b60405180910390fd5b565b600360009054906101000a900473ffffffffffffffffffffffffffffffffffffffff1673ffffffffffffffffffffffffffffffffffffffff163373ffffffffffffffffffffffffffffffffffffffff1614610fcf576040517f08c379a0000000000000000000000000000000000000000000000000000000008152600401610fc6906118a9565b60405180910390fd5b565b600080fd5b6000819050919050565b610fe981610fd6565b8114610ff457600080fd5b50565b60008135905061100681610fe0565b92915050565b60006020828403121561102257611021610fd1565b5b600061103084828501610ff7565b91505092915050565b600073ffffffffffffffffffffffffffffffffffffffff82169050919050565b600061106482611039565b9050919050565b61107481611059565b82525050565b600060208201905061108f600083018461106b565b92915050565b600081519050919050565b600082825260208201905092915050565b6000819050602082019050919050565b6110ca81610fd6565b82525050565b6110d981611059565b82525050565b60008115159050919050565b6110f4816110df565b82525050565b60c08201600082015161111060008501826110c1565b50602082015161112360208501826110c1565b50604082015161113660408501826110d0565b50606082015161114960608501826110c1565b50608082015161115c60808501826110eb565b5060a082015161116f60a08501826110d0565b50505050565b600061118183836110fa565b60c08301905092915050565b6000602082019050919050565b60006111a582611095565b6111af81856110a0565b93506111ba836110b1565b8060005b838110156111eb5781516111d28882611175565b97506111dd8361118d565b9250506001810190506111be565b5085935050505092915050565b60006020820190508181036000830152611212818461119a565b905092915050565b61122381611059565b811461122e57600080fd5b50565b6000813590506112408161121a565b92915050565b60006020828403121561125c5761125b610fd1565b5b600061126a84828501611231565b91505092915050565b6000806040838503121561128a57611289610fd1565b5b600061129885828601610ff7565b92505060206112a985828601611231565b9150509250929050565b600082825260208201905092915050565b7f696e76616c6964207472616e73616374696f6e20696400000000000000000000600082015250565b60006112fa6016836112b3565b9150611305826112c4565b602082019050919050565b60006020820190508181036000830152611329816112ed565b9050919050565b7f7a65726f20616464726573732064657465637465640000000000000000000000600082015250565b60006113666015836112b3565b915061137182611330565b602082019050919050565b6000602082019050818103600083015261139581611359565b9050919050565b7f63616e2774207369676e20747769636500000000000000000000000000000000600082015250565b60006113d26010836112b3565b91506113dd8261139c565b602082019050919050565b60006020820190508181036000830152611401816113c5565b9050919050565b7f696e73756666696369656e7420636f6e74726163742062616c616e6365000000600082015250565b600061143e601d836112b3565b915061144982611408565b602082019050919050565b6000602082019050818103600083015261146d81611431565b9050919050565b7f7472616e73616374696f6e20616c726561647920657865637574656400000000600082015250565b60006114aa601c836112b3565b91506114b582611474565b602082019050919050565b600060208201905081810360008301526114d98161149d565b9050919050565b7f71756f72756d20636f756e742072656163686564000000000000000000000000600082015250565b60006115166014836112b3565b9150611521826114e0565b602082019050919050565b6000602082019050818103600083015261154581611509565b9050919050565b7f4e487b7100000000000000000000000000000000000000000000000000000000600052601160045260246000fd5b600061158682610fd6565b915061159183610fd6565b92508282019050808211156115a9576115a861154c565b5b92915050565b7f6e6f74206e657874206f776e6572000000000000000000000000000000000000600082015250565b60006115e5600e836112b3565b91506115f0826115af565b602082019050919050565b60006020820190508181036000830152611614816115d8565b9050919050565b7f496e76616c696420696e64657800000000000000000000000000000000000000600082015250565b6000611651600d836112b3565b915061165c8261161b565b602082019050919050565b6000602082019050818103600083015261168081611644565b9050919050565b600061169282610fd6565b915061169d83610fd6565b92508282039050818111156116b5576116b461154c565b5b92915050565b7f4e487b7100000000000000000000000000000000000000000000000000000000600052603260045260246000fd5b7f4e487b7100000000000000000000000000000000000000000000000000000000600052603160045260246000fd5b7f7369676e657220616c7265616479206578697374000000000000000000000000600082015250565b600061174f6014836112b3565b915061175a82611719565b602082019050919050565b6000602082019050818103600083015261177e81611742565b9050919050565b7f6e6f207a65726f2076616c756520616c6c6f7765640000000000000000000000600082015250565b60006117bb6015836112b3565b91506117c682611785565b602082019050919050565b600060208201905081810360008301526117ea816117ae565b9050919050565b7f6e6f742076616c6964207369676e657200000000000000000000000000000000600082015250565b60006118276010836112b3565b9150611832826117f1565b602082019050919050565b600060208201905081810360008301526118568161181a565b9050919050565b7f6e6f74206f776e65720000000000000000000000000000000000000000000000600082015250565b60006118936009836112b3565b915061189e8261185d565b602082019050919050565b600060208201905081810360008301526118c281611886565b905091905056fea2646970667358221220bb272a8ff2459a3f5c8196c635fd45be773f8a170d35ac721cc1f45d4a2f75f464736f6c634300081b0033",
  "linkReferences": {},
  "deployedLinkReferences": {}
}